:020000041F805B
:1000000072B64FF00000014602460346044605461C
:1000100006460746064880F30888064806490860F1
:10002000EFF3148020F0010080F314880348804728
:1000300040BD811F0001801F08ED00E02104801FEA
:1001000040BD811F2104801F2904801FA93B801F3F
:100110002904801F2904801F2904801F000000007B
:10012000000000000000000000000000F113801F2C
:100130002904801F000000008114801FD514801F37
:100140002904801F2904801F2904801F7578801FBF
:100150002904801F2904801F2904801F2904801F6F
:100160002904801FA537801F6D5F801F358A801F7F
:10017000A15F801F9D38801F2904801F2904801FD4
:100180002904801F2904801F2904801F096D801FF6
:100190002904801F2904801F2904801F3D7E801FA1
:1001A000AD7D801F2904801F2904801F2904801F22
:1001B0002904801F2904801F2904801F2904801F0F
:1001C0002904801F2904801F2904801F2904801FFF
:1001D0002904801F2904801F2904801F2904801FEF
:1001E0002904801F2904801F2904801F2904801FDF
:1001F0002904801F2904801F2904801F2904801FCF
:100200002904801F2904801F2904801F2904801FBE
:100210002904801F2904801F2904801F2904801FAE
:100220002904801F2904801F2904801F2904801F9E
:100230002904801F2904801F2904801F2904801F8E
:100240002904801F2904801F2904801F2904801F7E
:100250002904801F2904801F2904801F2904801F6E
:100260002904801F2904801F2904801F2904801F5E
:100270002904801F2904801F2904801F2904801F4E
:100280002904801F2904801F2904801F2904801F3E
:100290002904801F2904801F2904801F2904801F2E
:1002A0002904801F2904801F2904801F2904801F1E
:1002B0002904801F2904801F2904801F2904801F0E
:1002C0002904801F2904801F2904801F2904801FFE
:1002D0002904801F2904801F2904801F2904801FEE
:1002E0002904801F2904801F2904801F2904801FDE
:1002F0002904801F2904801F2904801F2904801FCE
:100300002904801F2904801F2904801F2904801FBD
:100310002904801F2904801F2904801F2904801FAD
:100320002904801F2904801F2904801F2904801F9D
:100330002904801F2904801F2904801F2904801F8D
:1003400010B5054C237833B9044B13B10448AFF30F
:1003500000800123237010BDF01F811F00000000EA
:100360005CFA801F0C4B43B10C480D4910B5AFF33C
:1003700000800C48036823B910BD0A48036833B9EC
:100380007047094B002BF7D0BDE810401847064BCB
:10039000002BF5D0184700BF000000005CFA801F5A
:1003A000F41F811FEC1F811F00000000154B002B64
:1003B00008BF134B9D46A3F5803A00218B460F469C
:1003C0001348144A121A0AF0ADFE0F4B002B00D04E
:1003D00098470E4B002B00D09847002000210400C6
:1003E0000D000D48002802D00C48AFF300800AF041
:1003F0005BFE2000290003F09FFD0AF041FE00BFD4
:100400000000080040BD811F000000000000000047
:10041000F01F811FE885811F000000000000000020
:1004200072B662B6FFF7C2FFFFF7FEBF034613F8CE
:10043000012B002AFBD1181A013870470000000078
:1004400001F0FF01102A2BDB10F0070F08D010F885
:10045000013B013A8B422DD010F0070F42B3F6D189
:10046000F0B441EA012141EA014122F007047FF0A2
:1004700000070023F0E80256083C85EA010586EAF9
:10048000010685FA47F5A3FA87F586FA47F6A5FA35
:1004900087F68EB9EED1F0BC01F0FF0102F0070241
:1004A00032B110F8013B013A83EA010313B1F8D1EC
:1004B0000020704701387047002D06BF35460338CD
:1004C000073815F0010F07D1013015F4807F02BF06
:1004D000013015F4C03F0130F0BC0138704700BF57
:1004E00081F0004102E000BF83F0004330B54FEAE5
:1004F00041044FEA430594EA050F08BF90EA020F52
:100500001FBF54EA000C55EA020C7FEA645C7FEAE4
:10051000655C00F0E2804FEA5454D4EB5555B8BF07
:100520006D420CDD2C4480EA020281EA030382EA78
:10053000000083EA010180EA020281EA0303362D0A
:1005400088BF30BD11F0004F4FEA01314FF4801CDD
:100550004CEA113102D0404261EB410113F0004FEF
:100560004FEA03334CEA133302D0524263EB4303A6
:1005700094EA050F00F0A780A4F10104D5F1200E44
:100580000DDB02FA0EFC22FA05F2801841F100019F
:1005900003FA0EF2801843FA05F359410EE0A5F173
:1005A00020050EF1200E012A03FA0EFC28BF4CF0A4
:1005B000020C43FA05F3C01851EBE37101F000455A
:1005C00007D54FF0000EDCF1000C7EEB00006EEB67
:1005D0000101B1F5801F1BD3B1F5001F0CD34908F1
:1005E0005FEA30004FEA3C0C04F101044FEA445248
:1005F00012F5800F80F09A80BCF1004F08BF5FEACF
:10060000500C50F1000041EB045141EA050130BDAE
:100610005FEA4C0C404141EB010111F4801FA4F151
:100620000104E9D191F0000F04BF01460020B1FAA6
:1006300081F308BF2033A3F10B03B3F120020CDADE
:100640000C3208DD02F1140CC2F10C0201FA0CF0BC
:1006500021FA02F10CE002F11402D8BFC2F1200C21
:1006600001FA02F120FA0CFCDCBF41EA0C019040D7
:10067000E41AA2BF01EB0451294330BD6FEA040420
:100680001F3C1CDA0C340EDC04F11404C4F120020B
:1006900020FA04F001FA02F340EA030021FA04F31D
:1006A00045EA030130BDC4F10C04C4F1200220FA74
:1006B00002F001FA04F340EA0300294630BD21FAB2
:1006C00004F0294630BD94F0000F83F4801306BF78
:1006D00081F480110134013D4EE77FEA645C18BF6C
:1006E0007FEA655C29D094EA050F08BF90EA020F03
:1006F00005D054EA000C04BF1946104630BD91EAFB
:10070000030F1EBF0021002030BD5FEA545C05D1FD
:100710004000494128BF41F0004130BD14F580043C
:100720003CBF01F5801130BD01F0004545F0FE41B0
:1007300041F470014FF0000030BD7FEA645C1ABFE5
:10074000194610467FEA655C1CBF0B46024650EA1C
:10075000013406BF52EA033591EA030F41F4002148
:1007600030BD00BF90F0000F04BF0021704730B5CE
:100770004FF4806404F132044FF000054FF00001A3
:1007800050E700BF90F0000F04BF0021704730B564
:100790004FF4806404F1320410F0004548BF404239
:1007A0004FF000013EE700BF42004FEAE2014FEA8E
:1007B00031014FEA02701FBF12F07F4393F07F4F69
:1007C00081F06051704792F0000F14BF93F07F4F9B
:1007D000704730B54FF4607401F0004521F00041DE
:1007E00020E700BF50EA010208BF704730B54FF064
:1007F00000050AE050EA010208BF704730B511F069
:10080000004502D5404261EB41014FF4806404F1A0
:1008100032045FEA915C3FF4DCAE4FF003025FEA22
:10082000DC0C18BF03325FEADC0C18BF033202EBAA
:10083000DC02C2F1200300FA03FC20FA02F001FA04
:1008400003FE40EA0E0021FA02F11444C1E600BFA3
:1008500070B54FF0FF0C4CF4E06C1CEA11541DBF56
:100860001CEA135594EA0C0F95EA0C0F00F0DEF821
:100870002C4481EA030621EA4C5123EA4C5350EA06
:10088000013518BF52EA033541F4801143F4801357
:1008900038D0A0FB02CE4FF00005E1FB02E506F0E8
:1008A0000042E0FB03E54FF00006E1FB03569CF03D
:1008B000000F18BF4EF0010EA4F1FF04B6F5007F43
:1008C00064F5407404D25FEA4E0E6D4146EB0606B5
:1008D00042EAC62141EA55514FEAC52040EA5E503E
:1008E0004FEACE2EB4F1FD0C88BFBCF5E06F1ED8E8
:1008F000BEF1004F08BF5FEA500E50F1000041EB1F
:10090000045170BD06F0004646EA010140EA0200CB
:1009100081EA0301B4EB5C04C2BFD4EB0C0541EAED
:10092000045170BD41F480114FF0000E013C00F302
:10093000AB8014F1360FDEBF002001F0004170BD26
:10094000C4F10004203C35DA0C341BDC04F114043F
:10095000C4F1200500FA05F320FA04F001FA05F2CB
:1009600040EA020001F0004221F0004110EBD37098
:1009700021FA04F642EB06015EEA430E08BF20EAC4
:10098000D37070BDC4F10C04C4F1200500FA04F367
:1009900020FA05F001FA04F240EA020001F00041F9
:1009A00010EBD37041F100015EEA430E08BF20EA6C
:1009B000D37070BDC4F1200500FA05F24EEA020EB4
:1009C00020FA04F301FA05F243EA020321FA04F0E3
:1009D00001F0004121FA04F220EA020000EBD3709A
:1009E0005EEA430E08BF20EAD37070BD94F0000F9A
:1009F0000FD101F00046400041EB010111F4801FCE
:100A000008BF013CF7D041EA060195F0000F18BF7E
:100A1000704703F00046520043EB030313F4801FBA
:100A200008BF013DF7D043EA0603704794EA0C0F74
:100A30000CEA135518BF95EA0C0F0CD050EA41068A
:100A400018BF52EA4306D1D181EA030101F0004107
:100A50004FF0000070BD50EA410606BF104619462F
:100A600052EA430619D094EA0C0F02D150EA01363B
:100A700013D195EA0C0F05D152EA03361CBF10467C
:100A800019460AD181EA030101F0004141F0FE411B
:100A900041F470014FF0000070BD41F0FE4141F49F
:100AA000780170BD70B54FF0FF0C4CF4E06C1CEA9F
:100AB00011541DBF1CEA135594EA0C0F95EA0C0F54
:100AC00000F0A7F8A4EB050481EA030E52EA03350F
:100AD0004FEA013100F088804FEA03334FF0805530
:100AE00045EA131343EA12634FEA022245EA11155D
:100AF00045EA10654FEA00260EF000419D4208BF0E
:100B0000964244F1FD0404F5407402D25B084FEABA
:100B10003202B61A65EB03055B084FEA32024FF466
:100B200080104FF4002CB6EB020E75EB030E22BFC3
:100B3000B61A754640EA0C005B084FEA3202B6EB83
:100B4000020E75EB030E22BFB61A754640EA5C0032
:100B50005B084FEA3202B6EB020E75EB030E22BFC2
:100B6000B61A754640EA9C005B084FEA3202B6EBC3
:100B7000020E75EB030E22BFB61A754640EADC0082
:100B800055EA060E18D04FEA051545EA16754FEAE4
:100B900006164FEAC30343EA52734FEAC2025FEA02
:100BA0001C1CC0D111F4801F0BD141EA00014FF091
:100BB00000004FF0004CB6E711F4801F04BF014362
:100BC0000020B4F1FD0C88BFBCF5E06F3FF6AFAE7E
:100BD000B5EB030C04BFB6EB020C5FEA500C50F10E
:100BE000000041EB045170BD0EF0004E4EEA113191
:100BF00014EB5C04C2BFD4EB0C0541EA045170BD98
:100C000041F480114FF0000E013C90E645EA060EDB
:100C10008DE60CEA135594EA0C0F08BF95EA0C0F09
:100C20003FF43BAF94EA0C0F0AD150EA01347FF451
:100C300034AF95EA0C0F7FF425AF104619462CE728
:100C400095EA0C0F06D152EA03353FF4FDAE10468B
:100C5000194622E750EA410618BF52EA43067FF4DC
:100C6000C5AE50EA41047FF40DAF52EA43057FF46C
:100C7000EBAE12E74FF0FF3C06E000BF4FF0010C77
:100C800002E000BF4FF0010C4DF804CD4FEA410CDB
:100C90007FEA6C5C4FEA430C18BF7FEA6C5C1BD0A8
:100CA00001B050EA410C0CBF52EA430C91EA030F29
:100CB00002BF90EA020F0020704710F1000F91EA86
:100CC000030F58BF994208BF90422CBFD8176FEA54
:100CD000E37040F0010070474FEA410C7FEA6C5C22
:100CE00002D150EA013C07D14FEA430C7FEA6C5C29
:100CF000D6D152EA033CD3D05DF8040B704700BF55
:100D00008446104662468C461946634600E000BFA2
:100D100001B5FFF7B7FF002848BF10F1000F01BD74
:100D20004DF808EDFFF7F4FF0CBF012000205DF83F
:100D300008FB00BF4DF808EDFFF7EAFF34BF0120C4
:100D400000205DF808FB00BF4DF808EDFFF7E0FF5D
:100D500094BF012000205DF808FB00BF4DF808EDAE
:100D6000FFF7CEFF94BF012000205DF808FB00BF15
:100D70004DF808EDFFF7C4FF34BF012000205DF8F7
:100D800008FB00BF4FEA410212F5001215D211D53F
:100D90006FF47873B3EB625212D94FEAC12343F078
:100DA000004343EA505311F0004F23FA02F018BFFA
:100DB000404270474FF00000704750EA013005D1C3
:100DC00011F0004008BF6FF0004070474FF0000086
:100DD000704700BF4FEA4102B2F1E04324BFB3F5D0
:100DE000001CDCF1FE5C0DD901F0004C4FEAC002A2
:100DF0004CEA5070B2F1004F40EB830008BF20F086
:100E00000100704711F0804F21D113F13872BCBF3F
:100E100001F00040704741F480114FEA5252C2F194
:100E20001802C2F1200C10FA0CF320FA02F018BFDD
:100E300040F001004FEAC1234FEAD32303FA0CFC30
:100E400040EA0C0023FA02F34FEA4303CCE77FEABF
:100E5000625307D150EA01331EBF4FF0FE4040F409
:100E60004000704701F0004040F0FE4040F40000B8
:100E7000704700BF80F0004002E000BF81F00041F9
:100E800042001FBF5FEA410392EA030F7FEA226C30
:100E90007FEA236C6AD04FEA1262D2EB1363C1BFC0
:100EA000D218414048404140B8BF5B42192B88BF2F
:100EB000704710F0004F40F4000020F07F4018BF52
:100EC000404211F0004F41F4000121F07F4118BF72
:100ED000494292EA030F3FD0A2F1010241FA03FC1A
:100EE00010EB0C00C3F1200301FA03F100F0004302
:100EF00002D5494260EB4000B0F5000F13D3B0F1CA
:100F0000807F06D340084FEA310102F10102FE2A38
:100F100051D2B1F1004F40EBC25008BF20F00100A8
:100F200040EA03007047490040EB000010F4000F56
:100F3000A2F10102EDD1B0FA80FCACF1080CB2EBE9
:100F40000C0200FA0CF0AABF00EBC2505242184348
:100F5000BCBFD0401843704792F0000F81F40001ED
:100F600006BF80F400000132013BB5E74FEA4103C0
:100F70007FEA226C18BF7FEA236C21D092EA030F2C
:100F800004D092F0000F08BF0846704790EA010FA6
:100F90001CBF0020704712F07F4F04D1400028BFD3
:100FA00040F00040704712F100723CBF00F50000B5
:100FB000704700F0004343F0FE4040F400007047EB
:100FC0007FEA226216BF08467FEA23630146420297
:100FD00006BF5FEA412390EA010F40F480007047AA
:100FE0004FF0000304E000BF10F0004348BF404250
:100FF0005FEA000C08BF704743F0964301464FF08C
:1010000000001CE050EA010208BF70474FF00003E7
:101010000AE000BF50EA010208BF704711F0004328
:1010200002D5404261EB41015FEA010C02BF8446F8
:101030000146002043F0B64308BFA3F18053A3F557
:101040000003BCFA8CF2083AA3EBC25310DB01FA9E
:1010500002FC634400FA02FCC2F12002BCF1004F22
:1010600020FA02F243EB020008BF20F001007047B3
:1010700002F1200201FA02FCC2F1200250EA4C0007
:1010800021FA02F243EB020008BF20EADC7070474D
:101090004FF0FF0C1CEAD0521EBF1CEAD15392EA5B
:1010A0000C0F93EA0C0F6FD01A4480EA010C400237
:1010B00018BF5FEA41211ED04FF0006343EA501091
:1010C00043EA5111A0FB01310CF00040B1F5000FD3
:1010D0003EBF490041EAD3715B0040EA010062F182
:1010E0007F02FD2A1DD8B3F1004F40EBC25008BF6C
:1010F00020F00100704790F0000F0CF0004C08BF8A
:1011000049024CEA502040EA51207F3AC2BFD2F156
:10111000FF0340EAC250704740F400004FF0000364
:10112000013A5DDC12F1190FDCBF00F0004070479E
:10113000C2F10002410021FA02F1C2F1200200FADC
:1011400002FC5FEA310040F1000053EA4C0308BFA3
:1011500020EADC70704792F0000F00F0004C02BFF4
:10116000400010F4000F013AF9D040EA0C0093F06F
:10117000000F01F0004C02BF490011F4000F013BC9
:10118000F9D041EA0C018FE70CEAD15392EA0C0F37
:1011900018BF93EA0C0F0AD030F0004C18BF31F0A2
:1011A000004CD8D180EA010000F00040704790F078
:1011B000000F17BF90F0004F084691F0000F91F01C
:1011C000004F14D092EA0C0F01D142020FD193EAE2
:1011D0000C0F03D14B0218BF084608D180EA01006A
:1011E00000F0004040F0FE4040F40000704740F046
:1011F000FE4040F4400070474FF0FF0C1CEAD05214
:101200001EBF1CEAD15392EA0C0F93EA0C0F69D06F
:10121000A2EB030280EA010C49024FEA402037D0DA
:101220004FF0805343EA111143EA10130CF00040D1
:101230008B4238BF5B0042F17D024FF4000C8B42C1
:1012400024BF5B1A40EA0C00B3EB510F24BFA3EBA1
:10125000510340EA5C00B3EB910F24BFA3EB910371
:1012600040EA9C00B3EBD10F24BFA3EBD10340EACB
:10127000DC001B0118BF5FEA1C1CE0D1FD2A3FF611
:1012800050AF8B4240EBC25008BF20F001007047C6
:101290000CF0004C4CEA50207F32C2BFD2F1FF0369
:1012A00040EAC250704740F400004FF00003013A9A
:1012B00037E792F0000F00F0004C02BF400010F43E
:1012C000000F013AF9D040EA0C0093F0000F01F052
:1012D000004C02BF490011F4000F013BF9D041EA74
:1012E0000C0195E70CEAD15392EA0C0F08D14202A7
:1012F0007FF47DAF93EA0C0F7FF470AF084676E77A
:1013000093EA0C0F04D14B023FF44CAF08466EE752
:1013100030F0004C18BF31F0004CCAD130F0004220
:101320007FF45CAF31F000437FF43CAF5FE700BF78
:101330004FEA4002B2F1FE4F0FD34FF09E03B3EBE2
:1013400012620DD94FEA002343F0004310F0004F22
:1013500023FA02F018BF404270474FF00000704778
:1013600012F1610F01D1420205D110F0004008BF17
:101370006FF0004070474FF0000070470A4B1B6849
:10138000013308D04FF0200383F31188BFF36F8F30
:10139000BFF34F8FFEE74FF0200383F31188BFF3B5
:1013A0006F8FBFF34F8FFEE7401D811F0648006817
:1013B000006880F3088862B661B6BFF34F8FBFF351
:1013C0006F8F00DF00BF000008ED00E04FF080737A
:1013D00040F8043C21F00101044B40F8081C40F89F
:1013E0000C3C40F8202C4038704700BF7D13801F14
:1013F000074B19680868B0E8F00F80F30988BFF35D
:101400006F8F4FF0000080F311884EF00D0E704783
:101410006880811F4FF0200383F31188BFF36F8F23
:10142000BFF34F8F0A4A13680133012B13600DD1AC
:10143000084B1B6813F0FF0F08D04FF0200383F315
:101440001188BFF36F8FBFF34F8FFEE7704700BF68
:10145000401D811F04ED00E0084A136843B94FF0B6
:10146000200383F31188BFF36F8FBFF34F8FFEE725
:10147000013B13600BB983F311887047401D811F36
:10148000EFF30980BFF36F8F114B1A6820E9F00F5B
:1014900010602DE908404FF0200080F31188BFF361
:1014A0004F8FBFF36F8F01F01BF94FF0000080F3F7
:1014B0001188BDE8084019680868B0E8F00F80F3AB
:1014C0000988BFF36F8F7047AFF30080AFF30080E0
:1014D0006880811F08B54FF0200383F31188BFF3A4
:1014E0006F8FBFF34F8F00F0CDFF18B1034B4FF05C
:1014F00080521A60002383F3118808BD04ED00E0D8
:10150000034B044A1A60072243F8042C704700BFBB
:1015100014E000E0FFBF030013B5204B1A78D2B2ED
:101520000192FF221A701B781D4ADBB28DF803303E
:101530009DF8033003F0200313701A4B07221A6042
:1015400000219DF80300000602F1FF341CD401B114
:101550001A601A68120202F4E0621A60019B0F4AD4
:10156000DBB21370104B1A6842F460021A601A68FA
:1015700042F060421A60FFF7C3FF0C4B00221A6072
:10158000FFF714FFFFF7FAFE9DF803205200D2B2D6
:101590008DF8032001212246D3E700BF00E400E0DC
:1015A0000C20811F1020811F20ED00E0401D811FB5
:1015B000EFF305830F2B0ED9104A9B5C104A12786B
:1015C0009A4208D94FF0200383F31188BFF36F8F3D
:1015D000BFF34F8FFEE70B4B0B4A1B68126803F4F7
:1015E000E063934208D94FF0200383F31188BFF3DF
:1015F0006F8FBFF34F8FFEE7704700BFF0E300E04F
:101600000C20811F0CED00E01020811F70B50446F6
:1016100000F022FF2648016871B9264B264A23F0C4
:10162000070313605160254A45F6F87582E82200E9
:1016300083E82400012303602CB1083463071CBF36
:1016400024F007040834621E45F6F6739A4207D860
:10165000194A136859688C4204D818498B4207D13B
:1016600000251EE019680029F7D01A460B46F1E75D
:101670001968156811605968091B102905F10805DA
:101680000AD91A1951605C6056680B4908684468A9
:10169000A6420AD810600A6009495B680A68D21A33
:1016A0000A6000F081FF284670BD0146EEE700BFEA
:1016B0001C80811F1C20811F2080811F1480811F9E
:1016C000441D811F38B50446C8B1A0F1080500F0DB
:1016D000C3FE54F8040C0A4B1A68516888420CD8AF
:1016E00044F8082C074A1D6054F8043C11680B4468
:1016F0001360BDE8384000F057BF1346ECE738BD33
:101700002080811F441D811F10B51820FFF77EFF28
:10171000044620B1002340F8043B00F0D0F82046F6
:1017200010BD00002DE9F047089F0D4690469946F0
:10173000064640B94FF0200383F31188BFF36F8F43
:10174000BFF34F8FFEE711F07F4A08D04FF0200320
:1017500083F31188BFF36F8FBFF34F8FFEE741B95B
:101760004FF0200383F31188BFF36F8FBFF34F8FC8
:10177000FEE701F02BF948BB47B34FF0200383F39A
:101780001188BFF36F8FBFF34F8FFEE743BB97B155
:10179000B8F1000F0CBF00214FF08071B9F1000FBC
:1017A00001D041F080613A462943301D00F0ECFF42
:1017B000BA4600241AE0BA4618E09D4233D1B8F187
:1017C000000F30D024EA050535602CE000F044FE1F
:1017D000346805EA0403B9F1000FD7D09D42D6D191
:1017E000B8F1000F02D024EA0503336000F0DCFEFC
:1017F000BAF1000F1BD038B90E4B4FF080521A606F
:10180000BFF34F8FBFF36F8F01F086F9830104465A
:101810000BD4FFF7FFFD346805EA0403B9F1000FAC
:10182000CBD1002BCBD1FFF717FE24F07F4420460D
:10183000BDE8F08704ED00E0F8B50F46044640B976
:101840004FF0200383F31188BFF36F8FBFF34F8FE7
:10185000FEE711F07F4508D04FF0200383F3118895
:10186000BFF36F8FBFF34F8FFEE700F10C0600F060
:10187000F3FD236820693B4323608642216806D13B
:1018800021EA0501216000F08FFE2068F8BD90E894
:10189000880013F0806F23F07F4203D10A4204D105
:1018A0003846EAE732EA010EFAD1DB0100D51543EA
:1018B00041F0007100F0F4FFF2E7FFF7BDBF00F167
:1018C000080343604FF0FF32C3600361002382606E
:1018D0000360704700230361704743684B609A6858
:1018E0008A609A68516099600861036801330360F7
:1018F00070470A68531C30B50AD103695A684A60B8
:1019000091608B605960086103680133036030BDEA
:1019100000F108035C682568AA42EFD32346F9E783
:1019200042688168036991608268416851605A68C1
:10193000904204BF82685A60002202611868013830
:101940001860704770B51546026C866B044642B944
:1019500005689DB9406801F08FF865600136A6639F
:1019600070BD6DB9806809F0D2FBA368226C134486
:101970006268A360934201D32368A3600020EDE76F
:10198000C06809F0C4FB236CE26821685B421A441A
:101990008A42E2603EBF62689B18E360022DEDD18F
:1019A0000EB1013EEAE73046D8E7034610B41A6CA0
:1019B00008465AB1D9685C681144A142D96024BF75
:1019C0001968D960D96810BC09F0A1BB10BC704778
:1019D0004FF0200383F31188BFF36F8FBFF34F8F56
:1019E000FEE773B5846C01900A460CB9FFF7F0FF6F
:1019F000A16BE36B994208D34FF0200383F3118866
:101A0000BFF36F8FBFF34F8FFEE7A16B8B421AD9E5
:101A100094F8455001A92046FFF794FF6DB26B1C66
:101A200006460BD1636A33B104F1240000F0F6FEE0
:101A3000002818BF0126304602B070BD01356DB2D6
:101A400084F84550F7E70026F5E770B50446FFF740
:101A5000E1FC94F8455004F124066DB2002D14DC2D
:101A6000FF2384F84530FFF7F7FCFFF7D3FC94F829
:101A7000445004F110066DB2002D19DCFF2384F8E8
:101A80004430BDE87040FFF7E7BCA36C4BB10021C8
:101A90002046FFF7A6FF08B100F092FF013D6DB2AE
:101AA000DCE7636A002BDBD0304600F0B7FEF2E7DC
:101AB0002369002BE2D0304600F0B0FE08B100F000
:101AC0007FFF013D6DB2D7E738B50D46044608B932
:101AD000FFF77EFFFFF79EFC206CE36B2268A2609D
:101AE0004343D1181B1A13446160E3600021FF23B4
:101AF000A16384F8443084F8453095B9236963B113
:101B000004F1100000F08AFE38B10A4B4FF0805209
:101B10001A60BFF34F8FBFF36F8FFFF79DFC01205B
:101B200038BD04F11000FFF7CAFE04F12400FFF7EE
:101B3000C6FEF2E704ED00E070B50D46064640B97A
:101B40004FF0200383F31188BFF36F8FBFF34F8FE4
:101B5000FEE748434C30FFF759FD044648B155B9FC
:101B60002060E663256401212046FFF7ADFF0023D6
:101B7000A364204670BD00F14C030360F1E7000050
:101B80002DE9FF47894601921F46044640B94FF0B0
:101B9000200383F31188BFF36F8FBFF34F8FFEE7EE
:101BA000002940F09180036C002B00F08D804FF0F5
:101BB000200383F31188BFF36F8FBFF34F8FFEE7CE
:101BC000019E002E00F08B804FF0200383F31188DC
:101BD000BFF36F8FBFF34F8FFEE7636A002B58D0C0
:101BE00004F1240000F01AFE53E0019D1DB9FFF737
:101BF00033FC002059E016B902A800F097FEFFF769
:101C00002BFC00F029FCFFF705FC94F84430FF2B77
:101C100008BF84F8448094F84530FF2B08BF84F84F
:101C20004580FFF719FC01A902A800F08FFE0028EB
:101C300044D1FFF7EFFBA66BE56BFFF70DFCAE425F
:101C400036D1019904F1100000F084FD2046FFF721
:101C5000FCFE00F0A9FC38B94FF08053CAF8003000
:101C6000BFF34F8FBFF36F8F0126FFF7D3FBA26B3C
:101C7000E36B9A4201D3022FB7D13A464946204638
:101C8000FFF760FEA36C002BA7D039462046FFF774
:101C9000A8FE38B1194B4FF080521A60BFF34F8F36
:101CA000BFF36F8FFFF7D8FB012004B0BDE8F087CA
:101CB0002046FFF7CAFE00F077FCD5E72046FFF785
:101CC000C4FE00F071FC94E7022F02D1E36B012BFC
:101CD0000AD100F07BFE00283FF472AF00264FF0DF
:101CE0000008DFF818A0C0E74FF0200383F3118845
:101CF000BFF36F8FBFF34F8FFEE700BF04ED00E02F
:101D000010B5024600210120FFF716FF044638B146
:101D1000002343600360C3601A461946FFF730FF93
:101D2000204610BD2DE9F843884691461F460446DB
:101D300040B94FF0200383F31188BFF36F8FBFF3D7
:101D40004F8FFEE719BB036C0BB34FF0200383F3F7
:101D50001188BFF36F8FBFF34F8FFEE7B9F1000F0C
:101D60003FD00120C9F8000086F31188BDE8F88350
:101D7000636A002B35D004F1240000F04FFD2EE003
:101D800001356DB284F845502BE00020ECE7022FBE
:101D900002D1E36B012B26D1FFF70AFCEFF311868A
:101DA0004FF0200383F31188BFF36F8FBFF34F8F82
:101DB000A26BE36B9A4201D3022FE6D194F845500F
:101DC0003A466DB241462046FFF7BCFD6B1CD7D1A9
:101DD000A36C002BCCD039462046FFF702FE00282A
:101DE000BCD10120C0E74FF0200383F31188BFF37B
:101DF0006F8FBFF34F8FFEE770B50E46044640B9B4
:101E00004FF0200383F31188BFF36F8FBFF34F8F21
:101E1000FEE7036C43B14FF0200383F31188BFF357
:101E20006F8FBFF34F8FFEE7036813B94368002B32
:101E300035D1FFF7BDFBEFF311854FF0200383F39E
:101E40001188BFF36F8FBFF34F8FA26BE36B9A4282
:101E500001D3002013E094F8453001325BB2A26355
:101E60005A1C17D1A36C6BB100212046FFF7B9FDB6
:101E700008B9012003E0002EFBD00120306085F37B
:101E8000118870BD636A002BF3D004F1240000F0C8
:101E9000C5FCEDE701335BB284F84530E9E74FF06C
:101EA000200383F31188BFF36F8FBFF34F8FFEE7DB
:101EB0002DE9FF47884601929946044640B94FF004
:101EC000200383F31188BFF36F8FBFF34F8FFEE7BB
:101ED000002940F0A580036C002B00F0A1804FF09A
:101EE000200383F31188BFF36F8FBFF34F8FFEE79B
:101EF000019E002E00F09A804FF0200383F311889A
:101F0000BFF36F8FBFF34F8FFEE7636AE660002B6E
:101F10006DD004F124005FE0019D1DB9FFF79CFA2C
:101F2000284667E016B902A800F000FDFFF794FA12
:101F300000F092FAFFF76EFA94F84430FF2B08BFD6
:101F400084F8447094F84530FF2B08BF84F845703E
:101F5000FFF782FA01A902A800F0F8FC002852D18C
:101F6000FFF758FAA56BFFF777FA002D45D12368E4
:101F700033B9FFF74FFA606800F038FDFFF76CFAED
:101F8000019904F1240000F0E5FB2046FFF75DFD18
:101F900000F00AFB38B94FF08053CAF80030BFF3A5
:101FA0004F8FBFF36F8F0126FFF734FAA56B002D1B
:101FB000B2D041462046E668FFF7F7FCB9F1000FC2
:101FC000A3D12368013DA56313B900F0B1FD6060A2
:101FD000236963B104F1100000F020FC38B1154B07
:101FE0004FF080521A60BFF34F8FBFF36F8FFFF730
:101FF00033FA012004B0BDE8F0872046FFF725FD45
:1020000000F0D2FACFE72046FFF71FFD00F0CCFA30
:10201000FFF700FAA56BFFF71FFA002DC3D17FE78A
:1020200000F0D4FC00283FF463AF00260027DFF85F
:1020300004A0B9E704ED00E02DE9F8438946904695
:10204000054640B94FF0200383F31188BFF36F8F2B
:10205000BFF34F8FFEE771BB036C63B34FF02003F8
:1020600083F31188BFF36F8FBFF34F8FFEE795F8AF
:102070004460494676B22846FFF797FC013C731C42
:10208000AC6313D12B690BB901200BE005F11000F3
:1020900000F0C4FB0028F7D0B8F1000FF4D0012005
:1020A000C8F8000087F31188BDE8F883013676B2DE
:1020B00085F84460E8E7FFF77BFAEFF311874FF00C
:1020C000200383F31188BFF36F8FBFF34F8FAC6B87
:1020D000002CCCD12046E5E740B94FF0200383F334
:1020E0001188BFF36F8FBFF34F8FFEE7806B704790
:1020F00030B5074A002352F83350DC0025B942F8C6
:1021000033102244506030BD0133082BF3D130BD71
:102110002880811F70B504460D461646FFF77AF9F0
:1021200094F84430FF2B04BF002384F8443094F823
:102130004530FF2B04BF002384F84530FFF78CF9AE
:10214000A36B2BB93246294604F1240000F048FB6A
:102150002046BDE87040FFF778BCFEE7064A1368EA
:102160001968064B19B94FF0FF321A6070471268B0
:10217000D268D2685268F8E76C80811F1881811F8D
:10218000F8B51B4B1B4E1D680446306804300F46E3
:10219000FFF7C6FB334640B93168174EC96A32684B
:1021A0000120884022EA00023260621C07D137B168
:1021B000196812480431BDE8F840FFF78EBB2C4483
:1021C0001A68A542546007D90D4A10681968BDE81D
:1021D000F8400431FFF78DBB0A4A106819680431D2
:1021E000FFF787FB084B1A68944238BF1C60F8BDA4
:1021F0004C81811F6880811FE880811F3881811F89
:102200007080811F6C80811F1881811F4FF0200317
:1022100083F31188BFF36F8FBFF34F8FFEE700008A
:102220002DE9F84F4FEA820A804650460F469946FC
:102230000B9EFFF7EBF90546002800F09C8050202C
:10224000FFF7E4F90446002800F09280AAF1040A9E
:10225000056355447B1E25F0070A00F13402093757
:10226000597802F8011B13F8011F09B1BB42F7D1DD
:102270000A9D042D28BF04254FF0000B271DE562A1
:102280002564384684F83DB0C4F844B0FFF722FB1B
:10229000C5F1050504F11800FFF71CFBC4F848B0B0
:1022A0002461A561646284F84CB04A4641465046B8
:1022B000FFF78CF8206006B13460FFF7ABF8354BC0
:1022C000354E1A68DFF8088101321A603268002A38
:1022D00054D134601B68012B22D13048DFF8F490D0
:1022E0002F4DFFF7ECFA2F48FFF7E9FA2E48FFF7DA
:1022F000E6FA2E48FFF7E3FA2D48FFF7E0FA4846E2
:10230000FFF7DDFA2846FFF7DAFA2A48FFF7D7FA8F
:102310002948FFF7D4FA294BC3F80090284B1D60D9
:10232000284A29491368086801331360E26A0125C5
:1023300005FA02F303430B60184B142000FB023034
:102340003946FFF7CAFAFFF787F8D8F8003063B1CB
:102350003368DA6AE36A9A4207D21C4B4FF0805224
:102360001A60BFF34F8FBFF36F8F2846BDE8F88F19
:102370002846FFF7A7F94FF0FF35F6E7D8F8003009
:10238000002BCDD13368DA6AE36A9A4298BF346091
:10239000C6E700BFD880811F6880811F7480811FBD
:1023A0000081811F8880811F9C80811FB080811FD8
:1023B000C480811F2081811F3881811F6C80811F13
:1023C0007080811FE480811FE880811F04ED00E0A0
:1023D0003481811FEC80811F13B5194B01930024B8
:1023E00000942346802217491748FFF719FF012858
:1023F00018D100F0F3FB012814D14FF0200383F330
:102400001188BFF36F8FBFF34F8F104B4FF0FF3228
:102410001A600F4B18600F4B1C6002B0BDE81040F3
:10242000FFF77AB8013008D14FF0200383F3118809
:10243000BFF36F8FBFF34F8FFEE702B010BD00BF39
:102440001481811FC8BB801F5B21801F1881811FE1
:102450003481811F4C81811F024A1368013313604C
:10246000704700BFE080811F014B1868704700BFB4
:102470004C81811F08B5FFF79BF8014B186808BD18
:102480004C81811F2DE9F84F3C4B1B68002B53D129
:102490003B4B1C6801341C60BCB93A4B1A6812688B
:1024A00042B14FF0200383F31188BFF36F8FBFF366
:1024B0004F8FFEE7344A1968106818601160334A7C
:1024C000136801331360FFF749FE314D314F2B681C
:1024D0009C424FF0000B3ED3DFF8A880DFF8C49099
:1024E000D8F80020126872BB4FF0FF322A6032E049
:1024F00006F1040A5046FFF713FAB16A19B106F162
:102500001800FFF70DFAF06AD9F80030012202FA3C
:1025100000F11943204BC9F800104FF0140E51463A
:102520000EFB0030FFF7D9F93868F16AC26A9142B0
:1025300028BF4FF0010BD3E7184A1368013313602B
:102540004FF0000B11E0D8F80020D268D66871680F
:102550008C42CDD229603A680F4BD16A14224A438B
:102560009A58022A28BF4FF0010B0D4A1268002A20
:1025700018BF4FF0010B5846BDE8F88FE080811F6F
:102580004C81811F6C80811F7080811F1C81811F85
:102590001881811F6880811F7480811FDC80811FEA
:1025A0005081811FE880811F2DE9F843314C236859
:1025B00043B94FF0200383F31188BFF36F8FBFF34C
:1025C0004F8FFEE7FEF726FF2368013B2360246858
:1025D0002CB10024FEF740FF2046BDE8F883264BCF
:1025E0001B68002BF5D0DFF8A890244FDFF8A480FB
:1025F000D9F80030E3B90CB1FFF7B0FD204D2C68DD
:1026000044B1204E0127FFF73DFF00B13760013C88
:10261000F9D12C601B4B1B68002BDAD01A4B4FF002
:1026200080521A60BFF34F8FBFF36F8F0124D1E741
:10263000D9F80C30DC68261D04F11800FFF770F99A
:102640003046FFF76DF9E26A3968012505FA02F3B1
:1026500014200B4300FB028031463B60FFF73DF93D
:102660000A4BE26A1B68DB6A9A4224BF054B1D6075
:10267000BEE700BFE080811FD880811FE880811FF6
:10268000DC80811F5081811F04ED00E06880811F84
:102690002081811F7480811F08B540B90E4B4FF017
:1026A00080521A60BFF34F8FBFF36F8F08BD0B4B83
:1026B000196841B14FF0200383F31188BFF36F8F86
:1026C000BFF34F8FFEE7FFF7C7FEFFF759FDFFF798
:1026D0006BFF0028E2D008BD04ED00E0E080811F20
:1026E00010B5174B1A68174B12B101221A6010BDB2
:1026F0001A60154B1B68B3FA83F3DBB2C3F11F03F7
:10270000142212495A4388188C5844B94FF02003B8
:1027100083F31188BFF36F8FBFF34F8FFEE74468D9
:102720000832646844600A44944204BF62684260AC
:10273000142202FB03135B68DA68054BD6E700BF7F
:10274000E080811F5081811FE880811F7480811F7C
:102750006880811F10B50C4640B94FF0200383F309
:102760001188BFF36F8FBFF34F8FFEE7054B1968DA
:102770001831FFF7BEF820460121BDE81040FFF7F1
:10278000FFBC00BF6880811F10B5144640B94FF0F0
:10279000200383F31188BFF36F8FBFF34F8FFEE7E2
:1027A0000D4B1B6843B94FF0200383F31188BFF32F
:1027B0006F8FBFF34F8FFEE7084B1A6841F000415F
:1027C000916119681831FFF788F820460121BDE8AA
:1027D0001040FFF7D5BC00BFE080811F6880811FDB
:1027E00038B50D46144640B94FF0200383F31188E5
:1027F000BFF36F8FBFF34F8FFEE7074B1968183198
:10280000FFF76BF8002C21460CBF28464FF0FF3035
:10281000BDE83840FFF7B4BC6880811F38B5C36895
:10282000DC6844B94FF0200383F31188BFF36F8F46
:10283000BFF34F8FFEE704F118052846FFF770F845
:10284000114B1B68E3B9251D2846FFF769F80F49AE
:10285000E26A08680123934003430B600C4B142089
:10286000294600FB0230FFF738F80A4BE26A1B6882
:10287000DB6A9A4283BF084B01201860002038BDF4
:1028800029460648EFE700BFE080811FE880811FEE
:102890007480811F6880811F5081811F2081811F6A
:1028A00070B51D4A126842B94FF0200383F31188B6
:1028B000BFF36F8FBFF34F8FFEE7C56841F0004154
:1028C000016045B94FF0200383F31188BFF36F8F88
:1028D000BFF34F8FFEE72E1DFFF722F83046FFF7BC
:1028E0001FF80E49EA6A0868012404FA02F3034358
:1028F0000B600B4B142000FB02303146FEF7EDFF5E
:10290000084BEA6A1B68DB6A9A4283BF064B1C606D
:102910002046002070BD00BFE080811FE880811F3D
:102920007480811F6880811F5081811F08B508B99C
:10293000FFF76CFC034B1B680360034B1B68436091
:1029400008BD00BF1C81811F4C81811F38B50D4619
:10295000044640B94FF0200383F31188BFF36F8F13
:10296000BFF34F8FFEE741B94FF0200383F3118887
:10297000BFF36F8FBFF34F8FFEE7FEF74BFD0E4B9C
:1029800019682B685A1C10D00C4A206812689042B3
:10299000626801D091420DD2881A83420AD95B1A2B
:1029A00013442B602046FFF7C1FF0024FEF754FDBF
:1029B000204638BD0124F9E74C81811F1C81811F0D
:1029C000014B01221A6070475081811F054B1B6823
:1029D00033B1054B1B68002B0CBF02200020704751
:1029E000012070473481811FE080811F2DE9F04173
:1029F0000446002838D01D4DC36A2A68D26A934223
:102A000032D282691A4E002AA1BF2A68D26AC2F164
:102A1000050282611427426907FB03639A4220D1B1
:102A200000F104084046FEF77BFF124A48B9E06A0D
:102A30004743F3592BB913680121814023EA01036D
:102A400013602B681168D86AE062012383400B434E
:102A500013601423414603FB0060BDE8F041FEF71C
:102A60003CBF2B68DB6AC362BDE8F0816880811FD0
:102A70007480811FE880811FF8B5044608B90020E2
:102A8000F8BD224B1B68984208D04FF0200383F317
:102A90001188BFF36F8FBFF34F8FFEE7436C43B9CD
:102AA0004FF0200383F31188BFF36F8FBFF34F8F75
:102AB000FEE7C16A026C013B91424364DFD0002B08
:102AC000DDD1051D2846FEF72BFF114E114A50B9E6
:102AD000E76A1421794373582BB913680120B84071
:102AE00023EA00031360236CE362C3F10501A161D3
:102AF0001168012404FA03F008431060142000FB5D
:102B000003602946FEF7E9FE2046F8BD6880811F74
:102B10007480811FE880811F044B1A6890691A68CD
:102B20001B68DB6AC3F10503936170476880811FEE
:102B3000044B1A681AB119684A6C01324A64186861
:102B4000704700BF6880811FF8B50F4CFEF762FC2C
:102B50002568ADB90D4F0E4E3846FEF7B0FE304633
:102B6000FEF7ADFE0B4B1F600B4B2A4610210A20CF
:102B70001E60FEF7E1FF206010B10849FFF7B8FAC8
:102B8000BDE8F840FEF768BC8881811F5C81811F29
:102B90007081811F5481811F5881811FCDBB801F8F
:102BA000914208B5416000610AD8D21A83699A42FD
:102BB0000DD2084B011D1868FEF79BFE002008BDD2
:102BC0009A4201D2994202D2011D034BF3E7012040
:102BD00008BD00BF5881811F5481811F07B5FFF7D1
:102BE000B3FF0D4B1B685BB10C4B019303230093A8
:102BF0004FF4807200230A490A48FFF711FB40B9DD
:102C00004FF0200383F31188BFF36F8FBFF34F8F13
:102C1000FEE703B05DF804FB8881811F8C81811F72
:102C2000D2BB801F452D801F2DE9F0418046282012
:102C30000D4617461E46FEF7E9FC0446A8B145B905
:102C40004FF0200383F31188BFF36F8FBFF34F8FD3
:102C5000FEE7FFF779FF069BC4F80080A561E761F6
:102C600026626362201DFEF735FE2046BDE8F08136
:102C700030B5154685B01A46034640B94FF02003DB
:102C800083F31188BFF36F8FBFF34F8FFEE70D4CB7
:102C9000206880B105298DE8220002930DDCFFF742
:102CA00095FE0023022808BF089A206818BF1A461C
:102CB0006946FEF765FF05B030BD00236946FFF7A2
:102CC00031F8F8E78881811F2DE9F3411B4D4FF062
:102CD00000082B681A6832B9194A11682960136014
:102CE00002B0BDE8F081DB68DC681E68271D38464D
:102CF000FEF716FE636A20469847E369012BE8D188
:102D0000A36933449E4206D2636024613946286831
:102D1000FEF7EFFDDDE70023CDF8008032461946CF
:102D20002046FFF7A5FF0028D3D14FF0200383F3FF
:102D30001188BFF36F8FBFF34F8FFEE75481811F60
:102D40005881811F2DE9F04F704DDFF8D08189B097
:102D50002F462B68D3F800B0BBF1000F43D0DB68DF
:102D6000D3F80090FFF778FBFFF77EFB684B1A68FB
:102D7000904282461E4638D20393FFF7A5FF039B7D
:102D80000124C3F800A0002C40F08680BBF1000FA6
:102D900067D0D1457ED8FFF707FC3B68DB68D3F8E6
:102DA0000CB00BF10400FEF7BBFDDBF81C30012B6F
:102DB0001DD1DBF818104B46524649445846FFF7E0
:102DC000EFFEA0B1009423464A4621465846FFF73D
:102DD0004FFF60B94FF0200383F31188BFF36F8F6B
:102DE000BFF34F8FFEE7D946BCE70024C9E7DBF805
:102DF000243058469847DFF82091D9F80000002386
:102E00001A4604A9FFF754F80028A2D0049B002B0F
:102E100003DA07990698059B9847049B002BECDB87
:102E2000069C636913B1201DFEF77AFDFFF71CFBBA
:102E300033689842834601D2FFF746FF049AC6F8EA
:102E400000B0092AD9D80123934013F4047A4AD157
:102E500013F0C70F23D19B06CFD52046FEF732FCD7
:102E6000CBE72C4B1B681A68B2FA82F252092A4B44
:102E7000A9EB0A011868FFF74DF9FFF795FB002849
:102E8000B9D14FF08053C8F80030BFF34F8FBFF374
:102E90006F8FB0E72246EAE7FFF786FBABE7A16951
:102EA000059B5A4619442046FFF77AFE0028A4D015
:102EB000636A20469847E369012B9ED1A269059970
:102EC000CDF800A00A44534651462046FFF7D0FEF5
:102ED000002892D14FF0200383F31188BFF36F8F46
:102EE000BFF34F8FFEE70599A16141B94FF0200371
:102EF00083F31188BFF36F8FBFF34F8FFEE75B46FD
:102F00005A4659442046FFF74BFE76E75481811F0D
:102F10008481811F5881811F8881811F04ED00E019
:102F200010B5044640B94FF0200383F31188BFF376
:102F30006F8FBFF34F8FFEE7FEF76CFA64690034C2
:102F400018BF0124FEF788FA204610BD10B50446CC
:102F500040B94FF0200383F31188BFF36F8FBFF3A5
:102F60004F8FFEE7FEF756FA246AFEF775FA204601
:102F700010BD38B50D46044640B94FF0200383F329
:102F80001188BFF36F8FBFF34F8FFEE7FEF742FA52
:102F90002562BDE83840FEF75FBA00001FB501901A
:102FA000074802911C466FF001030093039200232F
:102FB000224669460068FEF7B5FE04B010BD00BFAA
:102FC0008881811F13B5084B8DF807001A7842B12C
:102FD00058689C6801220DF10701A047002002B04B
:102FE00010BD4FF0FF30FAE79081811F00F0B6BAB4
:102FF00000F09ABA10B5074C1346074AA260074A78
:10300000E2600A461946606000F076FA01232370F8
:10301000002010BD9081811FF12F801FED2F801F98
:103020000FB41FB50A4B1B7873B107AB0393009322
:103030004FF0FF32069B0749002000F075F805B0FD
:103040005DF804EB04B070474FF0FF30F7E700BFC6
:103050009081811FC52F801F08B5054B1B7823B1B8
:103060000021FFF7AFFF012008BD4FF0FF3008BD82
:103070009081811F10B5064B1A7801462AB1586815
:10308000DC680122A047012010BD4FF0FF3010BDC9
:103090009081811F70B500240470BAB10A6822B90A
:1030A000302343700121084670BD044692FBF3F5BE
:1030B00003FB1522002AB4BFC2F13002303204F8FB
:1030C000012F2A46211A002DF0D1ECE70A68002AC8
:1030D000E6D09DF810100029044614BF3726572665
:1030E000B2FBF3F503FB1522092A94BF3032921983
:1030F00004F8012F2A46211A002DF1D1D3E72DE93A
:10310000F041069D0C4617461E465FFA80F8BC4209
:1031100001DBBDE8F08107994046A84731680131DD
:1031200031600134F3E700002DE9F04F93B0984689
:10313000002306939C4B1C9C0492B2F1FF3F18BFE6
:10314000134606460F46059398F8000038B9059BCC
:103150000BB1069B0493049813B0BDE8F08F2528AB
:1031600040F0C281002598F801302B2B08F10102B4
:1031700051D059D8202B51D0232B52D04FF00009D9
:1031800098F80130A3F13001092908F1010252D960
:103190002E2B06D19046013298F80130303B092B96
:1031A000F8D998F80120682A08F101034AD06C2A5E
:1031B0004FD04C2A18BF4346587803F10108A0F1BC
:1031C0005803202B00F29081DFE813F047008E01B6
:1031D0008E018E018E018E018E018E018E018E0177
:1031E000320156018F008E018E018E018E018F00FB
:1031F0008E018E018E018E01880114013C018E0129
:103200008E0162018E0146018E018E01EC0045F0B7
:1032100001059046A7E745F00205FAE745F00405E9
:10322000F7E745F01005F4E72D2BF0D0302BA5D1B2
:1032300045F00805EDE70A2101FB0939A9F130093C
:1032400090469DE798F80220682A08BF08F102031B
:10325000B2E798F802206C2AF7E7012312A902933B
:10326000236841F8283D029B00930022102309A8FF
:10327000FFF710FF09AB0344039315F0080304F1B3
:10328000040A05F0100B044600F09080BBF1000F1B
:103290000ED031463020B847029B002B31460CBF80
:1032A00078205820B847069B023306934FF0010B55
:1032B00021460196009706AB4A463020FFF71FFFD4
:1032C0004C46E8065CD5BBF1000F59D131463020A1
:1032D000B847029B002B31460CBF78205820B847D6
:1032E000069B0233069302344AE012A9236841F890
:1032F0002C3D01220A23009209A8FFF7CBFE09AB5F
:1033000003440393079B002B04F1040A044617DAD5
:1033100001344FF02D0B28071FD5BBF1000F05D04E
:1033200031465846B847069B01330693214601961D
:10333000009706AB4A463020FFF7E1FE4C461FE0FF
:10334000AB0703D501344FF02B0BE4E715F0040B6A
:103350001CBF01344FF0200BDDE7E90707D40196CD
:10336000009706AB4A4621462020FFF7C8FEBBF176
:10337000000F05D031465846B847069B01330693E7
:10338000039B03F1010B1BF8010D00286ED1EB0725
:103390007AD50196009706AB4A4621462020FFF7D2
:1033A000AEFE71E0002359E7FEFFFF7FEA071FD45E
:1033B000BBF1000F00D002340196009706AB4A46DD
:1033C00021462020FFF79BFEBBF1000F3FF479AFB1
:1033D00031463020B847029B002B31460CBF782085
:1033E0005820B847069B023306934FF0010B68E75D
:1033F0009B4666E712A9236841F8283D0123009304
:1034000004F1040A0823002209A8FFF743FE09ABD0
:10341000034429070446039388D4EA07B0D401463D
:103420000196009706AB4A462020FFF768FEA7E703
:1034300012A9236841F8283D0123009304F1040AEE
:103440000223E0E712A9236841F8283D01230093F5
:1034500004F1040A1023D6E712A9236841F8283D95
:103460000123009304F1040A0A23CCE73146B8474C
:10347000069B0133069386E731462078B847069BC2
:10348000013304F1040A069308F1010854465BE68F
:1034900004F1040A2468002CF6D02046FCF7C6FF8D
:1034A00015F00105834607D101460196009706AB4A
:1034B0004A462020FFF723FE013C14F8010F38B9DB
:1034C000002DE1D00196009706AB4A46594665E7C4
:1034D0003146B847069B01330693EEE72368069A08
:1034E0001A6004F1040ACFE73146B847069B01335E
:1034F0000693A246C8E700BF43795B06FCD50023CC
:1035000043700723837083230901C370B2FBF1F278
:10351000BFF35F8FD3B2C2F3072203704270BFF3D1
:103520005F8F0323C370704770B50B4B1B68032B71
:1035300006460C46154603D11146204600F092F986
:103540002544AC4200D170BD73799B06FCD514F8BC
:10355000013B3370F5E700BFDC81811F0A448A42DA
:1035600000D170474379DB0744BF037801F8013B82
:10357000F5E707B502AB012103F8010D184600F08D
:1035800071F9002003B05DF804FB00000FB41FB513
:1035900006AA074952F8043B0392009200204FF01C
:1035A000FF32FFF7C1FD05B05DF804EB04B07047D2
:1035B0007335801F094B04221A600020084AD86026
:1035C0004FF0FF33136042F8103C064B602283F843
:1035D00009234FF400721A60704700BF00002C42AC
:1035E00024002C4200E100E02DE9F041214D2B6840
:1035F00007461020D3F81C800E46FEF707F82B680C
:103600001D4D1B6A9B6B012B044604D92A681B497C
:103610001B48FFF705FD002343F6FF7E01212868C4
:1036200001FA03F280EA0E00104004D101330E2BA0
:10363000F5D1BDE8F0819AB22280124A1A445201B3
:103640006260114AA760E66042F823402288286839
:1036500001FA02F202432A60D8F8B0200132C8F819
:10366000B020142202FB0383204683F8B410BDE887
:10367000F08100BFE481811F0C002C42DABB801F67
:10368000ECBB801F80601102A081811F70B55C6857
:10369000E5696D063AD486073BD18D073CD1002AF7
:1036A0003DD012F003063DD11D880F2D3DD8204D91
:1036B0002D68ED6920601F486060A2601E4AE660C8
:1036C00021616261A6611A880F2A02D11B4AE26158
:1036D0000DE0DA68C2B94FF00112E2611A881421D4
:1036E00001FB0252D2F8C4100131C2F8C4101B8889
:1036F0000F2B07D0142202FB0353D3F8B82001325A
:10370000C3F8B820002070BD0D4AE0E76FF0050057
:1037100070BD4FF0FF3070BD6FF0010070BD6FF0F5
:10372000030070BD6FF0020070BD6FF0210070BD2E
:10373000E481811F0400020204000100080001006E
:103740000300010030B51549154B05880C681B684E
:103750000122AA40DB6962400A60D3F8B020013A36
:10376000C3F8B0200488142101FB0434002284F83B
:10377000B420048801FB0434C4F8B820048801FB99
:103780000434C4F8C020048801FB0434C4F8BC200D
:10379000008801FB0033C3F8C42030BD0C002C426C
:1037A000E481811FF8B52A4B1B68DE69294B1C6830
:1037B0007CB100250122196802FA05F0084214D1F3
:1037C00001350E2DF7D1244B4FF40072C3F8802140
:1037D000F8BD224B01221F46196802FA04F0084284
:1037E0001DD101340E2CF7D1EDE71D4C54F8250006
:1037F000C26812B100218068904754F82530154AFC
:10380000188811680123834014240B4004FB0565CC
:103810001360D5F8C0300133C5F8C030D3E7104D80
:1038200055F82400C26812B101218068904755F80C
:1038300024303A68198801238B401425134005FB76
:1038400004643B60D4F8BC300133C4F8BC30BAE740
:10385000E481811F2C002C4200E100E024002C4276
:10386000A081811F30B50B4B1A6B0B4B1C68224497
:103870004418A04209D11A681144064A1960526BD3
:10388000914224BF00221A6030BD10F8015B02F89B
:10389000015BEEE700C0811FE881811F38B50E4C47
:1038A000236893B90D4B1B68DD691B6A9B6B032B67
:1038B00003D90B490B48FFF7B3FB2368013323609F
:1038C000D5F8CC310133C5F8CC31074B4FF4005259
:1038D000C3F8802138BD00BFD881811FE481811FDA
:1038E00018BC801F01BC801F00E100E0024A536841
:1038F00043F0010353607047000EFF41FFF7F6BF2E
:1039000009490A480B68026843F0010342F00102CA
:1039100002600B60BFF36F8FBFF34F8F044A1368D1
:10392000DB07FCD5704700BF1401E6410401E64106
:103930000C00E6414FF4E13201490248FFF75ABB5F
:1039400000E1F50500051C4208B54FF4E1320649D7
:103950000648FFF74FFB064A06494FF08440BDE892
:10396000084003F0D9BD00BF0000A60E00051C42B0
:10397000A08601000080A90300B589B00368009308
:103980004368019383680293C368039303690493B4
:103990004369059383690693C3695C4807930C46A2
:1039A000FFF73EFB00995A485A4DFFF739FB019942
:1039B0005948FFF735FB02995848FFF731FB039947
:1039C0005748FFF72DFB04995648FFF729FB059947
:1039D0005548FFF725FB06995448FFF721FB079947
:1039E0005348FFF71DFB5348FFF71AFB2146524887
:1039F000FFF716FBA96A5148FFF712FBE96A504826
:103A0000FFF70EFBAC6AEB6A002B07DA4D48FFF7B5
:103A100007FB296B4C48FFF703FB05E0EB6A9807AF
:103A200007D54A48FFF7FCFABFF36F8FBFF35F8FEC
:103A3000FEE7EB6A5900F7D54548FFF7F1FAAB6AA4
:103A40001B0C1B04DBB1240C4248FFF7E9FAE20728
:103A500001D54148E6E7A30701D54048E2E76507FD
:103A600001D53F48DEE7200701D53E48DAE7E1050A
:103A700001D53D48D6E7A205D6D53C48D2E7AB6A8A
:103A800013F47F4F1FD0240A3948FFF7C9FAE30720
:103A900001D53848C6E7650701D53748C2E7200792
:103AA00001D53648BEE7E10601D53548BAE7A2069A
:103AB00001D53448B6E704F08204822CB4D1154B0A
:103AC0003148996BA7E7AB6A13F0FF0FACD02F48D2
:103AD000FFF7A6FAE30708D52D48FFF7A1FA23065A
:103AE000A2D50C4B2B48596B95E7A50701D52A4861
:103AF000F3E7200701D52948EFE7E10601D528487B
:103B0000EBE7A206EBD52748E7E700BF2EBC801FF6
:103B10004DBC801F00ED00E058BC801F63BC801FBF
:103B20006EBC801F79BC801F85BC801F90BC801F2D
:103B30009BBC801FA7BC801FC7BC801FDDBC801F33
:103B4000F2BC801F07BD801F20BD801F34BD801FB9
:103B50007ABD801F8EBD801F9CBD801FB4BD801F9D
:103B6000D0BD801F19BE801F34BE801F4DBE801F78
:103B70005EBE801F6ABE801FAFBE801FCDBE801F8D
:103B8000FABE801F26BF801F6FBF801FB7BF801F78
:103B9000C6BF801FDEC0801FE5BF801FFDBF801F26
:103BA0004AC0801F8DC0801F1EF0040F0CBFEFF3B2
:103BB0000880EFF309808169FFF7DEBE70470000DF
:103BC000024A536943F010035361704700ED00E06F
:103BD00038B5154904681548FFF722FA0123C4F8DF
:103BE0000432BFF35F8FD4F80432022BFBD10E49AD
:103BF0000F48FFF715FABFF35F8FFFF781FEBFF3A2
:103C00005F8FFFF7A1FE032507490A48FFF708FA6F
:103C1000C4F8045203F0F6FD074B29461868BDE8C6
:103C2000384002F043B900BF05C1801F1AC1801F90
:103C30004FC1801F87C1801FE481811F08B503F039
:103C4000FBFDFFF75BFEBDE80840FFF773BE000019
:103C500038B5046A0023012223716371A271E371F4
:103C6000016A896B0229054603D903490348FFF716
:103C7000D7F93C34EC6138BDBBC1801F30C5801F13
:103C800010B50446FFF7E4FF204602F039FA044677
:103C900008B902F03DFD204610BD000038B50546CC
:103CA000FFF788FC044638B92B6A9B6B012B03D9BC
:103CB00002490348FFF7B4F9204638BDDDC1801F33
:103CC0003BC2801F10B506242046012103F05AF99B
:103CD000E0B200220121013403F014F90D2CF3D1DC
:103CE00010BD0000034B602283F80C234FF4805278
:103CF0001A60704700E100E0714B2DE9F74F002595
:103D00001D60FFF7DFFF6F486F4CFFF789F9FFF782
:103D100057FF7420FDF77AFC206040B96B48FFF72D
:103D20007FF96FF00B05284603B0BDE8F08F7422D1
:103D3000294607F0F7F92668DFF8C891DFF8C8A12F
:103D4000DFF8C8B14FF0FC5373604FF00053B3601D
:103D500003F10D53F360A3F1A27373614FF020439D
:103D600033615B4B336237465A4B47F8243B03F1D0
:103D7000B07354331B68C3F3090848F030433B6009
:103D8000D9F800202A447A60336A9B6B012B06D94C
:103D90003B68009251462A465846FFF741F90135E3
:103DA000082D07F10807E8D12268136A9B6B022BE4
:103DB00003D949494948FFF733F92068FFF760FF05
:103DC000054650B123681B6A9B6B002BABD00246A3
:103DD00041494348FFF724F9A5E72068FFF7F8FEBB
:103DE00003F032FDFFF77EFF04F0E2FD50B12368DF
:103DF0001B6A9B6B13B94FF0FF3594E73948FFF707
:103E00000FF9F8E7206805F063FC01280AD0236861
:103E10001B6A9B6B002BEED02A462F493248FFF7D6
:103E2000FFF8E8E72068FFF739FF054648B1236847
:103E30001B6A9B6B002B3FF476AF024626492B484A
:103E4000C8E7014602F0A4FB2368054628B11B6AB7
:103E50009B6B002BCFD02648D1E71E6AB36B012B9A
:103E600003D9F1682348FFF7DBF8BFF35F8FF368EE
:103E70009B07FAD503F03AFF012003F043FF02212C
:103E8000084603F067FF02F04BFF1B4B186038B980
:103E900023681B6A9B6B1BB10F491848FFF7C0F8DA
:103EA000012005F057F804F0BFFA04F031F80022C1
:103EB000012104F031F908491148FFF7B1F832E760
:103EC000E881811F50C2801FE481811F75C2801F5D
:103ED00000C0811F0000E041F1C1801FD0C2801FDF
:103EE000F1C2801F18C3801F34C3801F52C3801FBC
:103EF0007AC3801F8CC3801FE081811FAAC3801FEB
:103F0000CFC3801F5C004043CBC1801FA7C2801F6E
:103F100008B50748FFF784F8FFF7F2FCBFF35F8F9F
:103F2000FFF712FD0348FFF77BF8002008BD00BF34
:103F300000C2801F24C2801F73B5FFF77FFE3C4B79
:103F40003C4A1B683C4DC3F38133032B13601ED1E5
:103F5000FFF7D2FE044648B32B681B6A9B6B012B0C
:103F600003D901463548FFF75BF82B681B6A9B6B4A
:103F700023B1224632493348FFF752F82B681B6AB7
:103F80009B6B1BB12E493048FFF74AF8FEE7022B26
:103F900002D1FFF7BDFFDDE72B681B6A9B6B012B8E
:103FA00002D92A48FFF73CF80024DEE700F064FE5F
:103FB000024640B12B681B6A9B6B012B03D9204939
:103FC0002348FFF72DF805F0EFF901214FF4807039
:103FD00005F0CCFA002601238DE848004FF48072EA
:103FE00033461C491C48FEF71BF90128044608D03B
:103FF0002B681B6A9B6B012BB7D91848FFF710F889
:10400000B3E702230093019633464FF480721449BC
:104010001448FEF705F90128044606D02B681B6AF0
:104020009B6B012BA1D91048E8E7FEF7D5F99CE777
:104030000000E041DC81811FE481811F08C4801FF2
:10404000FBC1801FDDC4801F09C5801FF1C3801F15
:104050001BC4801F3BC4801FE15C801F4FC4801FB6
:104060008AC4801F555A801FA0C4801F014B186846
:10407000704700BFE081811F13B502AB03E9030065
:10408000FFF7F4FF00239DE80600044602F058FB0A
:1040900060B1074B1B681B6A9B6B3BB10548002254
:1040A000214602B0BDE81040FEF7BABF02B010BD15
:1040B000E481811F3AC6801F044B4FF0A0610022AB
:1040C00083E8060093E80300FFF7D6BFEC81811F69
:1040D0002DE9F043774C23681B6A9B6B012B85B05D
:1040E000054600F1FF3640F2C2800246724973482D
:1040F000FEF796FF0E2E71D8DFE806F0087070709C
:1041000073087070707070701A70A2006C4B2D067E
:104110004FF0404245F496055A601D6093E8030055
:10412000FFF7AAFF642005B0BDE8F043FEF7B4BA7C
:1041300023681B6A9B6B012B02D96248FEF770FF54
:104140005F4D614FDFF89C81DFF89C9100236B602D
:1041500041F61F664FF4B46000FB067001F042FDAB
:10416000014638B123681B6A9B6B012B02D940467C
:10417000FEF756FF4FF050632B6095E80300FFF702
:104180007BFF01F08DFE6420FEF786FA01F082FECF
:10419000012812D101F084FE23681B6A9B6B012B5E
:1041A00003D931464948FEF73BFF23681B6A9B6BE6
:1041B000012B02D94846FEF733FF013642F28A034B
:1041C0009E42C7D12368424C1B6A9B6B012B03D9CB
:1041D00021884048FEF724FF0023238005B0BDE876
:1041E000F08323681B6A9B6B012B02D93A48FEF7C8
:1041F00017FF02A805F052F92368BDF808501B6AA2
:104200009B6B012B03D929463448FEF709FFA5F51E
:10421000EA530B3B4FF4B460584300F5371000F5F8
:10422000D86001F0DFFC264B002245F060655A6043
:104230001D6093E8030005B0BDE8F043FFF71CBF25
:10424000274C2068FEF76CFE30B1002300931A461D
:1042500003212068FEF70CFD0E2003F071FD002005
:1042600000F00EFE05B0BDE8F04300F0CDBD0E2E0F
:10427000B4D801A353F826F00D41801FDD41801F03
:10428000DD41801FDD41801FF341801F0D41801FF4
:10429000DD41801FDD41801FDD41801FDD41801F2A
:1042A000DD41801FDD41801F3141801FDD41801FC6
:1042B0004142801FE481811F4CC5801F61C5801F62
:1042C000EC81811F89C5801FE00089FFBBC5801F6D
:1042D000F481811FDEC5801F0FC6801F1CC6801F92
:1042E0007482811FA1C5801FC9C5801F70B5044697
:1042F0000D4602F00FFD58B9094B1B681B6A9B6BFA
:104300001BB108490848FEF78BFE6FF00C0070BD2A
:104310002B4662682168BDE8704002F011BA00BF08
:10432000E481811F62C6801FA6C6801F2DE9F04769
:1043300081468A46904602F0EDFC074658B91A4B72
:104340001B681B6A9B6B13B11848FEF769FE6FF080
:104350000C00BDE8F087FEF787F800244FF47A736D
:10436000064603FB08F5B5FBF3F5B8F1000F0DD0D9
:10437000801BA8420AD384B10B4B1B681B6A9B6B42
:1043800063B10B490B48FEF74BFE07E05246494626
:10439000384602F0A9FA044618B900242046BDE8C0
:1043A000F087FEF761F8E0E7E481811F7DC6801F9A
:1043B0006EC6801F93C6801F014B01221A70704782
:1043C0000882811F000000002DE97043024600268C
:1043D0000123711C002A39D15B08C41AA342204D65
:1043E00022D01846FCF7BEF902460B461AA1D1E9C5
:1043F0000001FCF757FB804620468946FCF7B2F9DE
:1044000002460B4640464946FCF722FA8046F0B287
:104410008946FCF7B7F902460B4640464946FCF789
:1044200065F8FCF7D7FC28600E492868FCF730FED9
:104430000D49FCF72DFE0D492860FCF71FFDFCF728
:1044400077FF0B4B5E381860BDE8708352085B0045
:104450000E46BEE7AFF300806B48DC63E943D33F11
:104460004482811F4B1F9A3E000020410000F04112
:104470004882811F2DE9F04F87B0002504900591F7
:104480001646039302F110082C463368AB4201D85C
:10449000002737E0302305FB033256F802B0059AB7
:1044A000934540F0928003FB05633833D3F804A0B2
:1044B000BAF1000F00F08980D3F80090039B454AC1
:1044C000E3180293B144002313700299049B5246EF
:1044D0004846FFF7DBF8071E18DAFDF7C5FF4FF473
:1044E0007A72B0FBF2F102FB11023B48FEF798FD35
:1044F0003A493B48FEF794FD5346029A39484946EB
:10450000FEF78EFD384607B0BDE8F08F314B1B78C3
:10451000002BFBD0FDF7A8FF30274FF47A7907FB7B
:104520000567B0FBF9F1383709FB11022A48FFF79C
:104530002DF82D492A48FFF729F87A68039B009443
:1045400041462A48FFF722F8BBF1010F1FD0BBF10B
:10455000020F32D17B683F3323F03F031C444FF4FA
:1045600018439C4231D9FDF77FFF4FF47A72B0FBBC
:10457000F2F102FB11021848FEF752FD1A491848E1
:10458000FEF74EFD41461A48FEF74AFD15E07B68EE
:10459000B3F5205F14D9FDF767FFB0FBF9F109FB14
:1045A00011020D48FEF73CFD0F490D48FEF738FD9E
:1045B0007A6810484146FEF733FD4FF0FF37A1E718
:1045C00004F520544FF4C043CBE7013508F130081F
:1045D0005BE700BF0882811FD1C8801FE0C6801F33
:1045E000DEC8801FECC8801FEEC6801F71C9801F07
:1045F00049C9801F26C9801FF7B51A4E0F464FF4D0
:104600007A75014600243068FEF7B3FC05FB07F21B
:1046100000942346B2FBF5F204213068FEF728FB34
:1046200098B9FDF721FFB0FBF5F105FB11020E482B
:10463000FEF7F6FC0D490E48FEF7F2FC0D48394630
:1046400003B0BDE8F040FEF7EBBC3568FDF70CFFAA
:1046500000940246234601212846FEF709FB03B0D9
:10466000F0BD00BF7082811FD1C8801F60C7801F4E
:10467000DEC8801F9FCF801F08B5FDF7F5FE4FF401
:104680007A72B0FBF2F102FB11020748FEF77EFFDF
:1046900006490748FEF77AFF0648FEF777FF012133
:1046A0000E20FFF7A9FFFEE7D1C8801F1BC8801F9F
:1046B000DEC8801F27CC801F2DE9F0410A46064640
:1046C0000D4601460C480D4FDFF83880FEF75EFFBF
:1046D0000024AC4204D10A48BDE8F041FEF756BFC1
:1046E000230703D121463846FEF750FF315D40468F
:1046F000FEF74CFF0134ECE767C8801F75C8801FC8
:10470000E3EB801F7EC8801FF0B5344B1B6887B079
:1047100007460E46A3B10B24013C13D1FDF7A4FEBE
:104720004FF47A72B0FBF2F102FB11022C48FEF753
:1047300077FC2C492C48FEF773FC2C48FEF770FCE4
:1047400007B0F0BD6A460121002001F065FD054675
:104750000028E1D007604660FDF786FE4FF47A72CC
:10476000B0FBF2F102FB11021D48FEF70FFF2049DA
:104770001D48FEF70BFF1F48FEF708FF34212846AF
:10478000FFF79AFF1C4B1C78002CD9D134230295DB
:104790000393059404946525013D15D1002CCFDACF
:1047A000FDF762FE4FF47A72B0FBF2F102FB1102E8
:1047B0000B48FEF735FC11490B48FEF731FC21464A
:1047C0000F48FEF72DFCBBE76A460121002001F0EF
:1047D00053FD04460028DFD1B2E700BF2C82811FC1
:1047E000D1C8801F31C7801FDEC8801FDFCD801F6A
:1047F00021C7801F26CE801F4182811F16C7801FC0
:10480000FFCD801F38B5114C95684FF4FA61102028
:10481000FFF77AFF2268126A926B012A05D90C4BC6
:10482000EA68A9680B48FEF7FBFBEA68A968084834
:1048300006F06DFC23681B6A9B6B012B04D90648AC
:10484000BDE83840FEF7ECBB38BD00BFE481811FF6
:10485000009129A00BCB801F4CCB801F7FB50D464C
:104860000021029103911446FFF740FD0146A0B1DB
:10487000FDF7FAFD4FF47A72B0FBF2F102FB110280
:104880002948FEF7CDFB29492948FEF7C9FB2948ED
:10489000FEF7C6FB40F2D17132E00A2202A8FFF710
:1048A00045FD002C064603DD21462846FFF7A4FE01
:1048B000FDF7DAFD4FF47A72B0FBF2F102FB110260
:1048C0001948FEF763FE19491948FEF75FFEBDF867
:1048D0000C309DF80C201848C3F3470302F0010286
:1048E0003146FEF753FEDEB99DF80C30DB070CD5E0
:1048F000BDF80C30C3F347033BB924B94FF4FA6158
:104900002846FFF701FF04B070BD002CC2DD002374
:104910000A4800931A4603210068FEF7A9F9B9E78F
:1049200040F2D271ECE700BFD1C8801F72C7801F70
:10493000DEC8801F41CE801F61CE801F7082811F24
:1049400013B50023946800930193FDF78DFD4FF498
:104950007A72B0FBF2F102FB11021248FEF716FE6A
:1049600011491248FEF712FE1148FEF70FFE236BA5
:10497000002B14BF0A2209228DF803200A22B3FB60
:10498000F2F3009A63F317020092A26AE36A43EA21
:10499000024301934FF0FF3221686846FFF75EFF44
:1049A00002B010BDD1C8801F0FC8801FDEC8801F95
:1049B000BECA801F30B585B0002402940394FDF771
:1049C00053FD4FF47A72B0FBF2F102FB11020F4873
:1049D0000F4DFEF7DBFD0F490F48FEF7D7FD0F48DF
:1049E000FEF7D4FD02A8224607218DF80B40FFF701
:1049F00035FF2868FEF794FA30B10094234622462A
:104A000003212868FEF734F905B030BDD1C8801FF6
:104A10007082811FE3C7801FDEC8801F6FCC801F9C
:104A200013B5002400940194FDF71EFD4FF47A7233
:104A3000B0FBF2F102FB11020948FEF7A7FD09499C
:104A40000948FEF7A3FD0948FEF7A0FD0C23224606
:104A5000052168468DF80330FFF700FF02B010BD56
:104A6000D1C8801FB1C7801FDEC8801FAAC9801FA0
:104A700037B50025946800950195FDF7F5FC4FF4D6
:104A80007A72B0FBF2F102FB11021148FEF77EFDD3
:104A900010491148FEF77AFDE268A1680F48FEF759
:104AA00075FD0B238DF80330E368C3F30B021B0B7A
:104AB000AA4218BF0133009A63F317020092A36859
:104AC00001932A4604216846FFF7C8FE03B030BDB3
:104AD000D1C8801FA0C7801FDEC8801FA6CD801F41
:104AE00037B50023946800930193FDF7BDFC4FF4A4
:104AF0007A72B0FBF2F102FB11022B48FEF746FD81
:104B00002A492B48FEF742FD616A2A48FEF73EFD1E
:104B100008238DF80330636A9BB2019321686846CD
:104B20004FF0FF32FFF79AFE0199606A224C64222F
:104B3000B1FBF2F302FB13126FF00903534303F5C9
:104B40007A7303EB10434FF470450E205D4303F07E
:104B5000EDF8226890423EBF02F1EA5202F540228F
:104B600022602268AB18984282BF02F1EA5202F535
:104B7000402222602946206803F04CF9FDF774FCBE
:104B80004FF47A72B0FBF2F102FB11020648FEF715
:104B9000FDFC06490648FEF7F9FC2A46216807484D
:104BA000FEF7F4FC03B030BDD1C8801FFFC7801FE3
:104BB000DEC8801F87CC801F3C82811FA7CC801F4E
:104BC00008B5FEF7C3F940F2D271FFF79DFD024B25
:104BD00001221A7008BD00BF4182811F73B50646CD
:104BE00002A8104B40F8043D0F49FEF7FDFC0F4BA7
:104BF000324602210446FFF73DFC051E05DA204639
:104C0000FEF7A0FD284602B070BD094B32460121D7
:104C10002046FFF72FFC051E2046F1DBFEF792FD34
:104C20000025EFE755AA55AAB943801F00010020CF
:104C30000099002010B59468FDF716FC4FF47A72C5
:104C4000B0FBF2F102FB11020748FEF79FFC074997
:104C50000748FEF79BFCA1680648FEF797FCA06892
:104C6000BDE81040FFF7BABFD1C8801FFDC6801F46
:104C7000DEC8801FFACB801F70B5002001F084FAD7
:104C80000028FAD0002001F095FA064640B1002530
:104C900033689D421ADB1B4B01221A60002413E08B
:104CA000FDF7E2FB4FF47A72B0FBF2F102FB110266
:104CB0001548FEF7B5F915491548FEF7B1F915483D
:104CC000FEF7AEF94FF0FF34204670BDA9B20020C8
:104CD00001F084FB044698B1FDF7C6FB4FF47A72ED
:104CE000B0FBF2F102FB11020748FEF799F9074900
:104CF0000748FEF795F921460748FEF791F9E3E7E3
:104D00000135C5E72C82811FD1C8801F0AC7801FCB
:104D1000DEC8801F8AD0801FABD0801F7FB50024E3
:104D2000064602940394FDF79FFB4FF47A72B0FBA2
:104D3000F2F102FB11022C482C4DFEF727FC2C4906
:104D40002C48FEF723FC2C48FEF720FC2B4B8DF85B
:104D50000B4002A84FF0FF320F211C60FFF77EFDD1
:104D60002868FEF7DDF830B100942346224603217F
:104D70002868FDF77DFF4FF47A70FDF78DFC002168
:104D8000084601F0A9FC0021084601F001FC98B199
:104D9000FDF76AFB4FF47A72B0FBF2F102FB1102ED
:104DA0001148FEF73DF912491248FEF739F9144847
:104DB000FEF736F904B070BDFFF75EFF80B1FDF776
:104DC00053FB4FF47A72B0FBF2F102FB110206487A
:104DD000FEF726F906490748FEF722F90948E7E7F2
:104DE000F0B201F0DDF9E5E7D1C8801F7082811FC4
:104DF00026C8801FDEC8801F6ACB801F2C82811FBF
:104E000099CB801FB1CB801F10B504F0EBFEA8B981
:104E1000FDF72AFB4FF47A72B0FBF2F102FB1102AC
:104E20001248FEF7FDF812491248FEF7F9F8124849
:104E3000FEF7F6F84FF0FF34204610BD04F046FFB1
:104E400004460028F8D0FDF70FFB4FF47A72B0FB50
:104E5000F2F102FB11020548FEF7E2F804490548A9
:104E6000FEF7DEF80548FEF7DBF8E5E7D1C8801F5E
:104E70003DC7801FDEC8801F84C8801FA3C8801F55
:104E800070B5064603F044F8054660B3FDF7ECFA4A
:104E90004FF47A74B0FBF4F104FB11021248FEF7F0
:104EA00075FB12491248FEF771FB31461148FEF7B7
:104EB0006DFB28463246012103F02EF9054690B1DC
:104EC000FDF7D2FAB0FBF4F104FB11020648FEF73D
:104ED000A7F806490648FEF7A3F829460648BDE8A4
:104EE0007040FEF79DB870BDD1C8801F49C7801FB4
:104EF000DEC8801F70CF801F85CF801F2DE9F04155
:104F0000C36905461BB10A205843FFF7B9FF04F0F7
:104F100069FE0746B0B9FDF7A7FA4FF47A72B0FB05
:104F2000F2F102FB11026448FEF77AF86349644823
:104F3000FEF776F86348FEF773F84FF0FF3420462B
:104F4000BDE8F0812B69652B06D0662B00F0B2809E
:104F5000642B1CD1022600E001263146384604F0BD
:104F60004DFE044638B3FDF77FFA4FF47A72B0FB7A
:104F7000F2F102FB11025048FEF752F84F49504837
:104F8000FEF74EF850483146FEF74AF8D7E7FDF7EE
:104F90006BFA4FF47A72B0FBF2F102FB1102464851
:104FA000FEF73EF845494648FEF73AF82969474872
:104FB000FEF736F8C1E76969384604F041FE044659
:104FC00088B1FDF751FA4FF47A72B0FBF2F102FBAF
:104FD00011023948FEF724F838493948FEF720F81D
:104FE00069693B48D0E73B4B3B4E6A691A603368BE
:104FF000002B39D101460722384605F0F5F94FF468
:105000007A778046002844D0FDF72EFAB0FBF7F1FE
:1050100007FB11022848FEF7B9FA28492848FEF78D
:10502000B5FA424625492D48FEF7B0FA622140F60E
:105030009A1005F03DFD612140F69A1005F038FD0B
:10504000FDF712FA4FF47A72B0FBF2F102FB110293
:105050001948FEF79BFA19491948FEF797FA2048B4
:10506000FEF794FA01233360FDF7FEF94FF47A72EC
:10507000B0FBF2F102FB11020F48FEF787FA0F496D
:105080000F48FEF783FA6A6929691648FEF77EFA27
:1050900055E7FDF7E9F9B0FBF7F107FB1102064808
:1050A000FEF774FA05490648FEF770FA0E48FEF757
:1050B0006DFABBE7002442E7D1C8801F54C7801FA8
:1050C000DEC8801F84C8801FADCE801F8CCE801F9D
:1050D000CACE801F0482811F0C82811FF0CE801FE8
:1050E00030CF801F48CF801F18CF801F37B50323D4
:1050F00094680025009501958DF80330A269BDF8EC
:10510000003062F30803ADF80030226A009B62F3BE
:1051100057230093A3680193FDF7A6F94FF47A7221
:10512000B0FBF2F102FB11020D48FEF72FFA0D4918
:105130000D48FEF72BFAA1680C48FEF727FA204627
:10514000FFF7DCFE28B129460B20FFF7DDFA03B09C
:1051500030BD4FF0FF320B216846FFF77FFBF6E7CB
:10516000D1C8801FF6C7801FDEC8801F42CC801FB9
:1051700013B5002300939468019302238DF8033044
:10518000A269BDF8003062F30803ADF80030226A6E
:10519000009B62F357230093A3680193FDF764F922
:1051A0004FF47A72B0FBF2F102FB11020E48FEF7E7
:1051B000EDF90E490E48FEF7E9F9A1680D48FEF732
:1051C000E5F92046FFF79AFE30B140F2D1710A208E
:1051D000FFF79AFA02B010BD4FF0FF320A2168467D
:1051E000FFF73CFBF6E700BFD1C8801FEDC7801F6B
:1051F000DEC8801FC9CB801F13B5002394680093BD
:10520000019301238DF80330A3680193FDF72CF976
:105210004FF47A72B0FBF2F102FB11020D48FEF777
:10522000B5F90D490D48FEF7B1F9A1680C48FEF734
:10523000ADF92046FFF762FE30B140F2D17108208F
:10524000FFF762FA02B010BD642208216846FFF73A
:1052500005FBF7E7D1C8801FC3C7801FDEC8801FCA
:1052600092CA801F13B50023946800930193FDF741
:10527000FBF84FF47A72B0FBF2F102FB110217480F
:10528000FEF784F916491748FEF780F9E268A1682D
:105290001548FEF77BF907238DF80330E368C3F365
:1052A0000B021B0B002A18BF0133009A63F317028D
:1052B0000092A36801932046FFF720FE30B140F230
:1052C000D1710320FFF720FA02B010BD4FF44862FD
:1052D00003216846FFF7C2FAF6E700BFD1C8801F76
:1052E00090C7801FDEC8801FD8CA801F13B5002357
:1052F000946800930193FDF7B7F84FF47A72B0FB0E
:10530000F2F102FB11021648FEF740F91549164862
:10531000FEF73CF9E268A1681448FEF737F9062366
:105320008DF80330E368C3F30B021B0B002A18BF90
:105330000133009A63F317020092A3680193204699
:10534000FFF7DCFD30B140F2D1710220FFF7DCF94C
:1053500002B010BD642202216846FFF77FFAF7E72A
:10536000D1C8801F81C7801FDEC8801FD8CA801F98
:1053700073B5002300939468019305238DF80330DF
:10538000A269BDF8003062F30803ADF80030226A6C
:10539000009B62F357230093A3680193FDF764F821
:1053A0004FF47A75B0FBF5F105FB11021B48FEF7CF
:1053B000EDF81B491B48FEF7E9F8A1691A48FEF70A
:1053C000E5F82046FFF79AFD30B140F2D17109208F
:1053D000FFF79AF902B070BDE269144E0A235343F5
:1053E0003360FDF741F8B0FBF5F105FB11020B4806
:1053F000FEF7CCF80A490B48FEF7C8F8E1690C48FB
:10540000FEF7C4F83068FFF73BFD236A14225A43C5
:1054100009216846FFF722FADCE700BFD1C8801FE8
:10542000D3C7801FDEC8801FCBC9801F3082811F79
:10543000F8C9801F0A4B1B681A7E012A0ED1002270
:105440001A76084A19681160596851609968916024
:10545000D968D16019695B6911615361704700BFF8
:105460004C1D811F4C82811F73B5494E0446306824
:105470000D46FDF755FD30B1002300931A46032178
:105480003068FDF7F5FB2379DB0755D5A388C3F317
:105490004703002B50D14FF4FA612846FFF734F947
:1054A000082D6ED123683B4D3B4C13F0010F46D0C5
:1054B0003A4EFFF7BFFF336870682B80FEF784FF1A
:1054C000B068FBF791FDFBF76FF92FA3D3E9002339
:1054D000FBF7BEF9FBF77EFC05F010FB23681B6AA7
:1054E0009B6B012B064603D929882D48FDF798FDB3
:1054F00023681B6A9B6B012B04D92A4B2A48196825
:10550000FDF78EFD23681B6A9B6B012B09D9274988
:105510003046FBF771FEFBF70BFF01462448FDF711
:105520007FFD23681B6A9B6B012B2AD9214802B09F
:10553000BDE87040FDF774BD40F2D171ADE74FF4A6
:105540007C732B8023681B6A9B6B012B02D91A4842
:10555000FDF766FD23681B6A9B6B012B02D9174878
:10556000FDF75EFD23681B6A9B6B012B02D9144873
:10557000FDF756FD23681B6A9B6B012B01D911486F
:10558000D5E702B070BD00BF9B1AA5A1FF4B6D3FD0
:105590007082811F501D811FE481811F4C82811FF9
:1055A000C4CF801F4882811FD2CF801F00007A4461
:1055B000E4CF801FC9C5801FF5CF801F03D0801F97
:1055C00014D0801F25D0801F37B51C4C054620689D
:1055D000FDF7A6FC30B1002300931A460321206892
:1055E000FDF746FBFFF726FF2B68DB0724D5144B9E
:1055F000144A1D6858681580FEF7E6FE124A134CDF
:10560000138801331380124B01221A702268126A28
:10561000926B012A03D9A9B20E48FDF701FD236858
:105620001B6A9B6B012B07D90B4B0C48196803B005
:10563000BDE83040FDF7F4BC03B030BD7082811F7F
:105640004C82811F501D811FF481811FE481811FC5
:105650004082811FC4CF801F4882811FD2CF801F0C
:105660002DE9F3414A4C06462068FDF759FC30B15C
:10567000002300931A4603212068FDF7F9FAFFF78B
:10568000D9FE3368434C13F0010F72D0424DA86825
:10569000FBF7AAFCFBF788F83BA3D3E90023FBF751
:1056A000D7F8FBF797FB05F029FAFBF741FE804698
:1056B000FBF79AFC3949FBF7EBFC3949FBF7E8FCAF
:1056C000384B07461868FBF78FFC01463846FBF756
:1056D00093FD05F013FAFBF72BFE334F3860FFF70D
:1056E000CFFBFFF791FB02F041FB304B72681A6071
:1056F0002F4B2E6868681E80FEF766FE2D4B2E4AE3
:105700001A6100221A605A609A60DA6023681B6A84
:105710009B6B012B03D931462848FDF781FC236898
:105720001B6A9B6B012B04D9254B26481968FDF792
:1057300077FC23681B6A9B6B012B06D94FF47A71A7
:10574000214898FBF1F1FDF76BFC23681B6A9B6B0A
:10575000012B03D939681D48FDF762FC23681B6AD9
:105760009B6B012B0CD91A4802B0BDE8F041FDF744
:1057700057BC23681B6A9B6B012B01D91548F3E7C3
:1057800002B0BDE8F08100BF9B1AA5A1FF4B6D3FA1
:105790007082811FE481811F4C82811F00002041A3
:1057A000002474496882811F3082811F3882811FE2
:1057B0000082811F1082811F6F12833A12CA801FDC
:1057C0004882811F26CA801F3ECA801F55CA801F7B
:1057D00069CA801F82CA801F2DE9F04F85B0044638
:1057E000FFF728FE864A874D11684368096A2B60D7
:1057F000896B854F0229924604D939688348591A22
:10580000FDF70EFC2368DFF848B213F0010F4CD10E
:105810003B6803F596133B609BF8003001338BF82F
:105820000030DAF800301B6A9B6B012B02D97848F4
:10583000FDF7F6FB9BF80030312B1BD9002475488F
:1058400000942346224603210068FDF711FA0E203A
:105850008BF8004002F074FA2046FFF711FBFFF7C7
:10586000D3FADAF800301B6A9B6B012B02D96A4825
:10587000FDF7D6FB3B682A68684C9A423CBF03F1AF
:10588000FF339B1A206838BF2B60FDF749FB48B1F6
:105890002468FCF7E9FD002302460093022120461C
:1058A000FDF7E6F905B0BDE8F08F5D4E5D4B5E4C4F
:1058B0001A8833889A4204BF00238BF8003023698A
:1058C000039319464FF07E50FBF7D8FA81462068C3
:1058D000FBF78AFB4946FBF7DBFB80463069FBF7A9
:1058E00083FB039B1946FBF7D3FB01464046FBF7BE
:1058F000C7FAFBF71DFD8046A0606068FBF774FBEC
:105900004946FBF7C5FB81467069FBF76DFB039BBE
:105910001946FBF7BDFB01464846FBF7B1FAFBF71A
:1059200007FDC4F80080E060606003904046FAF72D
:1059300029FF039B804689461846FAF723FF424613
:105940004B4605F001F9FBF745FA3849A061FBF732
:105950009FFBFAF729FF28A3D3E90023FBF7A2F85E
:10596000FBF738FA32496061FBF792FB3149FBF7EC
:105970008FFB314B80461868FBF736FB01464046EB
:10598000FBF73AFC05F0BAF8FBF7D2FC2B4B80464C
:10599000186840441860FFF773FAFFF735FA286873
:1059A0003B68A0F59610C01A01D002F02BFA2B68C4
:1059B00070683B60FEF708FD214B1A78012A7FF4DE
:1059C00039AF00221A70DAF800301B6A9B6B012B8A
:1059D0007FF630AF1B496069FBF75AFBFBF7A8FC69
:1059E000194ACDF800800346126831681748FDF760
:1059F00017FB1FE7AFF3008044F830005FE6BA40C2
:105A0000E481811F3482811F3882811FE4CC801F92
:105A10001CCD801F7482811F8ACD801F7082811FE0
:105A20004C82811F0082811F1082811F00606A4B9F
:105A300000002041002474496882811F3082811F48
:105A4000521D811F00007A444882811F3CCD801F77
:105A50000282811F7FB5574B009300231A46012114
:105A60005548FDF7E1F8554B186088B9FCF7FCFC88
:105A70004FF47A72B0FBF2F102FB11025048FDF7CD
:105A8000CFFA50495048FDF7CBFA5048FDF7C8FA15
:105A9000FCF7EAFC4FF47A72B0FBF2F102FB110260
:105AA0004748474E474D484CFDF7BAFA45494648E6
:105AB000FDF7B6FA4648FDF7B3FA0022012102A825
:105AC000FEF734FC0028F8D1FCF7CEFC4FF47A72D4
:105AD000B0FBF2F102FB11023046FDF757FD2946FB
:105AE0002046FDF753FD9DF80B300299039A013BC8
:105AF000DBB2062B96BF3748374B50F82330374878
:105B0000FDF744FD9DF80B300E2B3DD801A252F855
:105B100023F000BFBB5A801F515B801F715B801F49
:105B2000755B801F895B801F675B801F5D5B801FCB
:105B3000635B801F895B801F895B801F895B801F7F
:105B4000895B801F895B801F795B801F815B801F61
:105B500008210DEB0100FFF787FCAEE7022102A848
:105B6000F9E70321FBE7092102A8FFF735FEA4E7C7
:105B70000A21F9E70B21F7E702A8FFF725FD9CE7CB
:105B800002A8FFF76DFD98E7FCF76EFC4FF47A7200
:105B9000B0FBF2F102FB11023046FDF741FA294653
